:0E0DDC00C100040F3F4000000415000000009D
:03000B00020DC51E
:100DC500B2A030000985138C85148AB20032B200B6
:070DD500850A8C850B8A32B0
:100B9F00E590540FF519E590C4540FF50ED3E519F0
:100BAF00648094895008E50E648094894005C2A63C
:100BBF007FFF22E4F509F508D2A6F51AAF1A7401E2
:100BCF00A807088002C333D8FCFFE50E75F00A12A0
:100BDF000B5DAEF0EE8FF0A42508F508E50E75F06D
:100BEF000A120B5DF50EE51975F00A120B5DAEF0EA
:100BFF00EE8FF0A42509F509E51975F00A120B5DC2
:100C0F00F519051AE51AB404B3AF08EF3395E0FEF2
:100C1F007C007D0A120B7FAD09ED3395E0FCEF2DC3
:100C2F00FDEE3CFC120AA38F188E178D168C15E45F
:100C3F00FBFA79C87842120A018F128E118D108C2F
:100C4F000F7F007E607D667C45AB12AA11A910A8AC
:100C5F000F1208F8120ADCC374FF9FF50D74FF9E84
:100C6F00F50CFF3395E0EFF513E50DF514AB12AA74
:100C7F0011A910A80FE4FFFE7D807C3F1208037BB3
:100C8F00007A60796678451208F8120ADCC374FF9F
:100C9F009FF50D74FF9EF50CFFEFF50AE50DF50BB3
:080CAF00208C02D28C7F002290
:100D4300D2AF7589017F007E507D667C45AB12AAC8
:100D530011A910A80F1208F8120ADCC374FF9FF53B
:100D63000D74FF9EF50CFF3395E0EFF513E50DF5DC
:100D730014AB12AA11A910A80FE4FFFE7D807C3FDB
:100D83001208037B007A50796678451208F8120A34
:100D9300DCC374FF9FF50D74FF9EF50CFFEFF50A9E
:100DA300E50DF50B759001D2A9D28C759050D2A7A1
:100DB300C200D2A020A706C28CD2A080F7120B9F3C
:020DC30080F2BC
:10080000020B48E86480F8E933E83360110460F0D3
:10081000ED33EC337009E8FCE9FDEAFEEBFF22045E
:1008200060DED3EB9FEA9EE99DE8C2E78CF0C2F759
:1008300095F0400CE8CCF8E9CDF9EACEFAEBCFFB25
:10084000120B1385D0F05804700320D5B3E8047060
:10085000075002B2D5020B5292D5EC0460F7E4CCFB
:10086000C0E0C398F8603B94186008400DD0E0FBEE
:10087000020B2AE4FBFAC9FC8028E830E406E4C94C
:10088000FBE4CAFCE830E305E4C9CACBFCE8540742
:100890006010F8C3E913F9EA13FAEB13FBEC13FC4D
:1008A000D8F130F52FC3E49CFCEF9BFFEE9AFEEDF0
:1008B00099FDD0E0FBEF4E4D4C701222DB03020B92
:1008C0004FEC2CFCEF33FFEE33FEED33FDED30E764
:1008D000EB020B2AEF2BFFEE3AFEED39FDD0E0FBE9
:1008E00050130BBB0003020B52ED13FDEE13FEEF92
:0808F00013FFEC13FC020B2ABC
:1008F800EC4D6011E8497017ED33EC3304600DE4FA
:10090800FCFFFEFD22E933E8330470F8020B4812BD
:100918000B1358046009E4CC2481500628500902BE
:100928000B52284003020B4FC0E0EB4A7044B980D9
:1009380006D0E0FB020B3EEF4E701CBD8008EBFFBB
:10094800EAFEE9FD80EBE98DF0A4FEE5F00209E19D
:10095800E9CDF9EAFEEBFFEF89F0A4FCE5F0CE89DA
:10096800F0A42EFFE435F0CD89F0A42DFEE435F097
:100978008067EF4E7005BD80D780C3EF8BF0A4ACC5
:10098800F0EE8BF0A42CFCE435F0F8EF8AF0A42C00
:10099800E5F038FCE433CB8DF0A42CFCE5F03BF813
:1009A800EE8AF0A42CFCE5F038F8E433CF89F0A403
:1009B8002CFCE5F038CF3400CE89F0A42FFFE5F009
:1009C8003EFEE433C98DF0A42EFEE5F039CD8AF061
:1009D800A42FFFE5F03EFEE43DFD33D0E0FB5007D9
:1009E8000BBB000F020B52EC2CFCEF33FFEE33FE77
:0609F800ED33FD020B2AA5
:1009FE00020B52EC5D046005E859047003020B48CB
:100A0E00120B13580460F6EC4860F2EC7004FDFE15
:100A1E00FF22C860DB2481C85009C39860025006CB
:100A2E00020B4F9850CAF582E9294B4A7005AB82EA
:100A3E00020B3E75F0007C1A7880C3EF9BEE9AEDA8
:100A4E0099400DC3EF9BFFEE9AFEED99FDE842F043
:100A5E00DC23ACF0D0E0FFD0E0FED0E0FDAB822096
:100A6E00E7101BEB60BAEC2CFCEF33FFEE33FEED20
:100A7E0033FD020B2AE803F830E705C0F075F000ED
:100A8E00EF2FFFEE33FEED33FD40B830E7C280AA04
:100A9E0075F020800E75F010800575F0087D007ED3
:100AAE00007F003392D530D503120B91EC334010FA
:100ABE00EF33FFEE33FEED33FDEC33FCD5F0ED22DC
:0E0ACE00E5F0247EA2D513CC92E7CDCEFF2218
:100ADC00EDD2E7CD33EC3392D524814006E4FFFE12
:100AEC00FDFC22FCE4CFCECDCC24E0501174FF8071
:100AFC00EDC3CC13CCCD13CDCE13CECF13CF04700E
:070B0C00F030D5DE020B9171
:100B1300E9D2E7C933E833F892D5EDD2E7CD33EC28
:070B230033FC5002B2D522A1
:100B2A00EC30E7100FBF000C0EBE00080DBD00042C
:100B3A000BEB6014A2D5EB13FCED92E7FD2274FFD8
:100B4A00FCFDFEFF22E480F8A2D574FF13FC7D8031
:030B5A00E480EF45
:03000000020CB738
:0C0CB700787FE4F6D8FD758120020CFE69
:100B5D00C2D530F707B2D563F0FF05F030E70CB220
:100B6D00D5F4048463F0FF05F080018430D502F4E0
:020B7D00042250
:100B7F00EF8DF0A4A8F0CF8CF0A428CE8DF0A42E8A
:020B8F00FE2244
:0E0B9100C3E49FFFE49EFEE49DFDE49CFC2275
:100CC300020D43E493A3F8E493A34003F68001F2F7
:100CD30008DFF48029E493A3F85407240CC8C33332
:100CE300C4540F4420C8834004F456800146F6DF01
:100CF300E4800B0102040810204080900DDCE47EA8
:100D0300019360BCA3FF543F30E509541FFEE493F5
:100D1300A360010ECF54C025E060A840B8E493A3BC
:100D2300FAE493A3F8E493A3C8C582C8CAC583CAE7
:100D3300F0A3C8C582C8CAC583CADFE9DEE780BE9F
:010DEA000008
:00000001FF
