:080C4E00C100040A3F40000050
:03000B00020C37AD
:100C3700B2A0300009850E8C850F8AB20032B2004F
:070C470085088C85098A3243
:100A9E00D2AF758901AF0DAE0CAD0BAC0A1209FECB
:100AAE00E4FBFA796078411208F8A804A905AA06B1
:100ABE00AB07E4FFFE7D717C43120803120A0F8F11
:100ACE008CAF0DAE0CAD0BAC0A1209FEE4FBFA793D
:100ADE00CC78421208F8A804A905AA06AB07E4FFD1
:100AEE00FE7D197C43120803120A0F8F8AE4FFFE63
:100AFE007D607C41AB0DAA0CA90BA80A1208F8A8C0
:100B0E0004A905AA06AB07E4FFFE7D7F7C4312080D
:100B1E0003120A0F8F0EE4FFFE7DCC7C42AB0DAAB2
:100B2E000CA90BA80A1208F8A804A905AA06AB0777
:100B3E00E4FFFE7D807C43120803120A0F8F0FAF75
:100B4E000DAE0CAD0BAC0A1209FEE4FBFA7960781F
:100B5E00411208F8A804A905AA06AB07E4FFFE7D1A
:100B6E00717C43120803120A0F8F08AF0DAE0CAD45
:100B7E000BAC0A1209FEE4FBFA79CC78421208F8A3
:100B8E00A804A905AA06AB07E4FFFE7D1A7C431252
:0D0B9E000803120A0F8F09D28CD2A980FE25
:10080000020A7BE86480F8E933E83360110460F0A1
:10081000ED33EC337009E8FCE9FDEAFEEBFF22045E
:1008200060DED3EB9FEA9EE99DE8C2E78CF0C2F759
:1008300095F0400CE8CCF8E9CDF9EACEFAEBCFFB25
:10084000120A4685D0F05804700320D5B3E804702E
:10085000075002B2D5020A8592D5EC0460F7E4CCC9
:10086000C0E0C398F8603B94186008400DD0E0FBEE
:10087000020A5DE4FBFAC9FC8028E830E406E4C91A
:10088000FBE4CAFCE830E305E4C9CACBFCE8540742
:100890006010F8C3E913F9EA13FAEB13FBEC13FC4D
:1008A000D8F130F52FC3E49CFCEF9BFFEE9AFEEDF0
:1008B00099FDD0E0FBEF4E4D4C701222DB03020A93
:1008C00082EC2CFCEF33FFEE33FEED33FDED30E731
:1008D000EB020A5DEF2BFFEE3AFEED39FDD0E0FBB7
:1008E00050130BBB0003020A85ED13FDEE13FEEF60
:0808F00013FFEC13FC020A5D8A
:1008F800EC4D6011E8497017ED33EC3304600DE4FA
:10090800FCFFFEFD22E933E8330470F8020A7B128B
:100918000A4658046009E4CC24815006285009028C
:100928000A85284003020A82C0E0EB4A7044B98075
:1009380006D0E0FB020A71EF4E701CBD8008EBFF89
:10094800EAFEE9FD80EBE98DF0A4FEE5F00209E19D
:10095800E9CDF9EAFEEBFFEF89F0A4FCE5F0CE89DA
:10096800F0A42EFFE435F0CD89F0A42DFEE435F097
:100978008067EF4E7005BD80D780C3EF8BF0A4ACC5
:10098800F0EE8BF0A42CFCE435F0F8EF8AF0A42C00
:10099800E5F038FCE433CB8DF0A42CFCE5F03BF813
:1009A800EE8AF0A42CFCE5F038F8E433CF89F0A403
:1009B8002CFCE5F038CF3400CE89F0A42FFFE5F009
:1009C8003EFEE433C98DF0A42EFEE5F039CD8AF061
:1009D800A42FFFE5F03EFEE43DFD33D0E0FB5007D9
:1009E8000BBB000F020A85EC2CFCEF33FFEE33FE45
:0609F800ED33FD020A5D73
:1009FE00ED33EC33600A047003BD8004ECB2E7FC07
:010A0E0022C5
:100A0F00EDD2E7CD33EC3392D524814006E4FFFEDF
:100A1F00FDFC22FCE4CFCECDCC24E0501174FF803E
:100A2F00EDC3CC13CCCD13CDCE13CECF13CF0470DB
:070A3F00F030D5DE020A9041
:100A4600E9D2E7C933E833F892D5EDD2E7CD33ECF6
:070A560033FC5002B2D5226F
:100A5D00EC30E7100FBF000C0EBE00080DBD0004FA
:100A6D000BEB6014A2D5EB13FCED92E7FD2274FFA6
:100A7D00FCFDFEFF22E480F8A2D574FF13FC7D80FF
:030A8D00E480EF13
:03000000020BAB45
:0C0BAB00787FE4F6D8FD758120020BF283
:0E0A9000C3E49FFFE49EFEE49DFDE49CFC2277
:100BB700020A9EE493A3F8E493A34003F68001F2AC
:100BC70008DFF48029E493A3F85407240CC8C3333F
:100BD700C4540F4420C8834004F456800146F6DF0E
:100BE700E4800B0102040810204080900C4EE47E44
:100BF700019360BCA3FF543F30E509541FFEE49303
:100C0700A360010ECF54C025E060A840B8E493A3C9
:100C1700FAE493A3F8E493A3C8C582C8CAC583CAF4
:100C2700F0A3C8C582C8CAC583CADFE9DEE780BEAC
:010C5600009D
:00000001FF
